{
  "contractName": "SolnSquareVerifier",
  "abi": [
    {
      "inputs": [
        {
          "internalType": "address",
          "name": "_address",
          "type": "address"
        }
      ],
      "payable": false,
      "stateMutability": "nonpayable",
      "type": "constructor"
    },
    {
      "anonymous": false,
      "inputs": [
        {
          "indexed": true,
          "internalType": "address",
          "name": "owner",
          "type": "address"
        },
        {
          "indexed": true,
          "internalType": "address",
          "name": "approved",
          "type": "address"
        },
        {
          "indexed": true,
          "internalType": "uint256",
          "name": "tokenId",
          "type": "uint256"
        }
      ],
      "name": "Approval",
      "type": "event"
    },
    {
      "anonymous": false,
      "inputs": [
        {
          "indexed": true,
          "internalType": "address",
          "name": "owner",
          "type": "address"
        },
        {
          "indexed": true,
          "internalType": "address",
          "name": "operator",
          "type": "address"
        },
        {
          "indexed": false,
          "internalType": "bool",
          "name": "approved",
          "type": "bool"
        }
      ],
      "name": "ApprovalForAll",
      "type": "event"
    },
    {
      "anonymous": false,
      "inputs": [
        {
          "indexed": false,
          "internalType": "address",
          "name": "triggerAddress",
          "type": "address"
        }
      ],
      "name": "Paused",
      "type": "event"
    },
    {
      "anonymous": false,
      "inputs": [
        {
          "indexed": false,
          "internalType": "uint256",
          "name": "index",
          "type": "uint256"
        },
        {
          "indexed": false,
          "internalType": "address",
          "name": "toAddress",
          "type": "address"
        }
      ],
      "name": "SolutionAdded",
      "type": "event"
    },
    {
      "anonymous": false,
      "inputs": [
        {
          "indexed": true,
          "internalType": "address",
          "name": "from",
          "type": "address"
        },
        {
          "indexed": true,
          "internalType": "address",
          "name": "to",
          "type": "address"
        },
        {
          "indexed": true,
          "internalType": "uint256",
          "name": "tokenId",
          "type": "uint256"
        }
      ],
      "name": "Transfer",
      "type": "event"
    },
    {
      "anonymous": false,
      "inputs": [
        {
          "indexed": false,
          "internalType": "address",
          "name": "triggerAddress",
          "type": "address"
        }
      ],
      "name": "Unpaused",
      "type": "event"
    },
    {
      "anonymous": false,
      "inputs": [
        {
          "indexed": false,
          "internalType": "address",
          "name": "newAddress",
          "type": "address"
        }
      ],
      "name": "ownershipTransferred",
      "type": "event"
    },
    {
      "constant": true,
      "inputs": [],
      "name": "BaseTokenURI",
      "outputs": [
        {
          "internalType": "string",
          "name": "",
          "type": "string"
        }
      ],
      "payable": false,
      "stateMutability": "view",
      "type": "function"
    },
    {
      "constant": true,
      "inputs": [],
      "name": "Name",
      "outputs": [
        {
          "internalType": "string",
          "name": "",
          "type": "string"
        }
      ],
      "payable": false,
      "stateMutability": "view",
      "type": "function"
    },
    {
      "constant": true,
      "inputs": [],
      "name": "Owner",
      "outputs": [
        {
          "internalType": "address",
          "name": "",
          "type": "address"
        }
      ],
      "payable": false,
      "stateMutability": "view",
      "type": "function"
    },
    {
      "constant": false,
      "inputs": [
        {
          "internalType": "bool",
          "name": "pauseornot",
          "type": "bool"
        }
      ],
      "name": "Pause",
      "outputs": [],
      "payable": false,
      "stateMutability": "nonpayable",
      "type": "function"
    },
    {
      "constant": true,
      "inputs": [],
      "name": "Symbol",
      "outputs": [
        {
          "internalType": "string",
          "name": "",
          "type": "string"
        }
      ],
      "payable": false,
      "stateMutability": "view",
      "type": "function"
    },
    {
      "constant": true,
      "inputs": [],
      "name": "ZVerifier",
      "outputs": [
        {
          "internalType": "contract ZokratesVerifier",
          "name": "",
          "type": "address"
        }
      ],
      "payable": false,
      "stateMutability": "view",
      "type": "function"
    },
    {
      "constant": false,
      "inputs": [
        {
          "internalType": "bytes32",
          "name": "_myid",
          "type": "bytes32"
        },
        {
          "internalType": "string",
          "name": "_result",
          "type": "string"
        }
      ],
      "name": "__callback",
      "outputs": [],
      "payable": false,
      "stateMutability": "nonpayable",
      "type": "function"
    },
    {
      "constant": false,
      "inputs": [
        {
          "internalType": "bytes32",
          "name": "_myid",
          "type": "bytes32"
        },
        {
          "internalType": "string",
          "name": "_result",
          "type": "string"
        },
        {
          "internalType": "bytes",
          "name": "_proof",
          "type": "bytes"
        }
      ],
      "name": "__callback",
      "outputs": [],
      "payable": false,
      "stateMutability": "nonpayable",
      "type": "function"
    },
    {
      "constant": false,
      "inputs": [
        {
          "internalType": "address",
          "name": "to",
          "type": "address"
        },
        {
          "internalType": "uint256",
          "name": "tokenId",
          "type": "uint256"
        }
      ],
      "name": "approve",
      "outputs": [],
      "payable": false,
      "stateMutability": "nonpayable",
      "type": "function"
    },
    {
      "constant": true,
      "inputs": [
        {
          "internalType": "address",
          "name": "owner",
          "type": "address"
        }
      ],
      "name": "balanceOf",
      "outputs": [
        {
          "internalType": "uint256",
          "name": "",
          "type": "uint256"
        }
      ],
      "payable": false,
      "stateMutability": "view",
      "type": "function"
    },
    {
      "constant": true,
      "inputs": [
        {
          "internalType": "uint256",
          "name": "tokenId",
          "type": "uint256"
        }
      ],
      "name": "getApproved",
      "outputs": [
        {
          "internalType": "address",
          "name": "",
          "type": "address"
        }
      ],
      "payable": false,
      "stateMutability": "view",
      "type": "function"
    },
    {
      "constant": true,
      "inputs": [
        {
          "internalType": "address",
          "name": "owner",
          "type": "address"
        },
        {
          "internalType": "address",
          "name": "operator",
          "type": "address"
        }
      ],
      "name": "isApprovedForAll",
      "outputs": [
        {
          "internalType": "bool",
          "name": "",
          "type": "bool"
        }
      ],
      "payable": false,
      "stateMutability": "view",
      "type": "function"
    },
    {
      "constant": false,
      "inputs": [
        {
          "internalType": "address",
          "name": "to",
          "type": "address"
        },
        {
          "internalType": "uint256",
          "name": "tokenId",
          "type": "uint256"
        }
      ],
      "name": "mint",
      "outputs": [
        {
          "internalType": "bool",
          "name": "",
          "type": "bool"
        }
      ],
      "payable": false,
      "stateMutability": "nonpayable",
      "type": "function"
    },
    {
      "constant": true,
      "inputs": [
        {
          "internalType": "uint256",
          "name": "tokenId",
          "type": "uint256"
        }
      ],
      "name": "ownerOf",
      "outputs": [
        {
          "internalType": "address",
          "name": "",
          "type": "address"
        }
      ],
      "payable": false,
      "stateMutability": "view",
      "type": "function"
    },
    {
      "constant": false,
      "inputs": [
        {
          "internalType": "address",
          "name": "from",
          "type": "address"
        },
        {
          "internalType": "address",
          "name": "to",
          "type": "address"
        },
        {
          "internalType": "uint256",
          "name": "tokenId",
          "type": "uint256"
        }
      ],
      "name": "safeTransferFrom",
      "outputs": [],
      "payable": false,
      "stateMutability": "nonpayable",
      "type": "function"
    },
    {
      "constant": false,
      "inputs": [
        {
          "internalType": "address",
          "name": "from",
          "type": "address"
        },
        {
          "internalType": "address",
          "name": "to",
          "type": "address"
        },
        {
          "internalType": "uint256",
          "name": "tokenId",
          "type": "uint256"
        },
        {
          "internalType": "bytes",
          "name": "_data",
          "type": "bytes"
        }
      ],
      "name": "safeTransferFrom",
      "outputs": [],
      "payable": false,
      "stateMutability": "nonpayable",
      "type": "function"
    },
    {
      "constant": false,
      "inputs": [
        {
          "internalType": "address",
          "name": "to",
          "type": "address"
        },
        {
          "internalType": "bool",
          "name": "approved",
          "type": "bool"
        }
      ],
      "name": "setApprovalForAll",
      "outputs": [],
      "payable": false,
      "stateMutability": "nonpayable",
      "type": "function"
    },
    {
      "constant": true,
      "inputs": [
        {
          "internalType": "bytes4",
          "name": "interfaceId",
          "type": "bytes4"
        }
      ],
      "name": "supportsInterface",
      "outputs": [
        {
          "internalType": "bool",
          "name": "",
          "type": "bool"
        }
      ],
      "payable": false,
      "stateMutability": "view",
      "type": "function"
    },
    {
      "constant": true,
      "inputs": [
        {
          "internalType": "uint256",
          "name": "index",
          "type": "uint256"
        }
      ],
      "name": "tokenByIndex",
      "outputs": [
        {
          "internalType": "uint256",
          "name": "",
          "type": "uint256"
        }
      ],
      "payable": false,
      "stateMutability": "view",
      "type": "function"
    },
    {
      "constant": true,
      "inputs": [
        {
          "internalType": "address",
          "name": "owner",
          "type": "address"
        },
        {
          "internalType": "uint256",
          "name": "index",
          "type": "uint256"
        }
      ],
      "name": "tokenOfOwnerByIndex",
      "outputs": [
        {
          "internalType": "uint256",
          "name": "",
          "type": "uint256"
        }
      ],
      "payable": false,
      "stateMutability": "view",
      "type": "function"
    },
    {
      "constant": true,
      "inputs": [
        {
          "internalType": "uint256",
          "name": "tokenId",
          "type": "uint256"
        }
      ],
      "name": "tokenURI",
      "outputs": [
        {
          "internalType": "string",
          "name": "",
          "type": "string"
        }
      ],
      "payable": false,
      "stateMutability": "view",
      "type": "function"
    },
    {
      "constant": true,
      "inputs": [],
      "name": "totalSupply",
      "outputs": [
        {
          "internalType": "uint256",
          "name": "",
          "type": "uint256"
        }
      ],
      "payable": false,
      "stateMutability": "view",
      "type": "function"
    },
    {
      "constant": false,
      "inputs": [
        {
          "internalType": "address",
          "name": "from",
          "type": "address"
        },
        {
          "internalType": "address",
          "name": "to",
          "type": "address"
        },
        {
          "internalType": "uint256",
          "name": "tokenId",
          "type": "uint256"
        }
      ],
      "name": "transferFrom",
      "outputs": [],
      "payable": false,
      "stateMutability": "nonpayable",
      "type": "function"
    },
    {
      "constant": false,
      "inputs": [
        {
          "internalType": "address",
          "name": "newOwner",
          "type": "address"
        }
      ],
      "name": "transferOwnership",
      "outputs": [],
      "payable": false,
      "stateMutability": "nonpayable",
      "type": "function"
    },
    {
      "constant": false,
      "inputs": [
        {
          "internalType": "address",
          "name": "_to",
          "type": "address"
        },
        {
          "internalType": "uint256",
          "name": "_tokenId",
          "type": "uint256"
        },
        {
          "internalType": "uint256[2]",
          "name": "_input1",
          "type": "uint256[2]"
        },
        {
          "internalType": "uint256[2][2]",
          "name": "_input2",
          "type": "uint256[2][2]"
        },
        {
          "internalType": "uint256[2]",
          "name": "_input3",
          "type": "uint256[2]"
        },
        {
          "internalType": "uint256[2]",
          "name": "_input4",
          "type": "uint256[2]"
        }
      ],
      "name": "Mint",
      "outputs": [],
      "payable": false,
      "stateMutability": "nonpayable",
      "type": "function"
    }
  ],
  "bytecode": "0x60806040523480156200001157600080fd5b5060405162003c5438038062003c548339818101604052620000379190810190620003ac565b6040518060400160405280600a81526020017f524543617073746f6e65000000000000000000000000000000000000000000008152506040518060400160405280600581526020017f52454341500000000000000000000000000000000000000000000000000000008152506040518060600160405280603f815260200162003c15603f9139336000806101000a81548173ffffffffffffffffffffffffffffffffffffffff021916908373ffffffffffffffffffffffffffffffffffffffff1602179055507fac9a252a3ed2d3fcc198677953ffe98ac492e191a4605978c655f8ce4ae80676336040516200012e9190620003e9565b60405180910390a160008060146101000a81548160ff021916908315150217905550620001686301ffc9a760e01b6200024660201b60201c565b620001806380ac58cd60e01b6200024660201b60201c565b6200019863780e9d6360e01b6200024660201b60201c565b82600f9080519060200190620001b0929190620002e6565b508160109080519060200190620001c9929190620002e6565b508060119080519060200190620001e2929190620002e6565b50620001fb635b5e139f60e01b6200024660201b60201c565b50505080601360006101000a81548173ffffffffffffffffffffffffffffffffffffffff021916908373ffffffffffffffffffffffffffffffffffffffff1602179055505062000490565b63ffffffff60e01b817bffffffffffffffffffffffffffffffffffffffffffffffffffffffff191614156200027a57600080fd5b6001806000837bffffffffffffffffffffffffffffffffffffffffffffffffffffffff19167bffffffffffffffffffffffffffffffffffffffffffffffffffffffff1916815260200190815260200160002060006101000a81548160ff02191690831515021790555050565b828054600181600116156101000203166002900490600052602060002090601f016020900481019282601f106200032957805160ff19168380011785556200035a565b828001600101855582156200035a579182015b82811115620003595782518255916020019190600101906200033c565b5b5090506200036991906200036d565b5090565b6200039291905b808211156200038e57600081600090555060010162000374565b5090565b90565b600081519050620003a68162000476565b92915050565b600060208284031215620003bf57600080fd5b6000620003cf8482850162000395565b91505092915050565b620003e3816200043a565b82525050565b6000602082019050620004006000830184620003d8565b92915050565b600062000413826200041a565b9050919050565b600073ffffffffffffffffffffffffffffffffffffffff82169050919050565b600062000447826200044e565b9050919050565b60006200045b8262000462565b9050919050565b60006200046f826200041a565b9050919050565b620004818162000406565b81146200048d57600080fd5b50565b61377580620004a06000396000f3fe608060405234801561001057600080fd5b50600436106101735760003560e01c80634f6ccce7116100de578063a22cb46511610097578063c87b56dd11610071578063c87b56dd1461045c578063dadd1c521461048c578063e985e9c5146104a8578063f2fde38b146104d857610173565b8063a22cb46514610406578063b4a99a4e14610422578063b88d4fde1461044057610173565b80634f6ccce71461031e5780636352211e1461034e5780636522607e1461037e57806370a082311461039c5780638052474d146103cc5780639422424b146103ea57610173565b80632f745c59116101305780632f745c591461024a5780633045aaf31461027a57806338bbfa50146102985780633ca039f5146102b457806340c10f19146102d257806342842e0e1461030257610173565b806301ffc9a714610178578063081812fc146101a8578063095ea7b3146101d857806318160ddd146101f457806323b872dd1461021257806327dc297e1461022e575b600080fd5b610192600480360361018d9190810190612aff565b6104f4565b60405161019f919061322d565b60405180910390f35b6101c260048036036101bd9190810190612b51565b61055c565b6040516101cf919061317f565b60405180910390f35b6101f260048036036101ed9190810190612912565b610563565b005b6101fc6106f3565b6040516102099190613385565b60405180910390f35b61022c6004803603610227919081019061280c565b610700565b005b61024860048036036102439190810190612a2c565b610723565b005b610264600480360361025f9190810190612912565b610766565b6040516102719190613385565b60405180910390f35b6102826107d9565b60405161028f9190613263565b60405180910390f35b6102b260048036036102ad9190810190612a80565b61087b565b005b6102bc610880565b6040516102c99190613263565b60405180910390f35b6102ec60048036036102e79190810190612912565b610922565b6040516102f9919061322d565b60405180910390f35b61031c6004803603610317919081019061280c565b610a89565b005b61033860048036036103339190810190612b51565b610aa9565b6040516103459190613385565b60405180910390f35b61036860048036036103639190810190612b51565b610add565b604051610375919061317f565b60405180910390f35b610386610b1a565b6040516103939190613248565b60405180910390f35b6103b660048036036103b191908101906127a7565b610b40565b6040516103c39190613385565b60405180910390f35b6103d4610b90565b6040516103e19190613263565b60405180910390f35b61040460048036036103ff91908101906129da565b610c32565b005b610420600480360361041b91908101906128d6565b610cde565b005b61042a610e14565b604051610437919061317f565b60405180910390f35b61045a6004803603610455919081019061285b565b610e3d565b005b61047660048036036104719190810190612b51565b610e63565b6040516104839190613263565b60405180910390f35b6104a660048036036104a1919081019061294e565b610f2a565b005b6104c260048036036104bd91908101906127d0565b61110f565b6040516104cf919061322d565b60405180910390f35b6104f260048036036104ed91908101906127a7565b6111a3565b005b600060016000837bffffffffffffffffffffffffffffffffffffffffffffffffffffffff19167bffffffffffffffffffffffffffffffffffffffffffffffffffffffff1916815260200190815260200160002060009054906101000a900460ff169050919050565b6000919050565b61056c81610add565b73ffffffffffffffffffffffffffffffffffffffff168273ffffffffffffffffffffffffffffffffffffffff1614156105da576040517f08c379a00000000000000000000000000000000000000000000000000000000081526004016105d190613345565b60405180910390fd5b6105e2610e14565b73ffffffffffffffffffffffffffffffffffffffff163373ffffffffffffffffffffffffffffffffffffffff161461064f576040517f08c379a000000000000000000000000000000000000000000000000000000000815260040161064690613345565b60405180910390fd5b600460008373ffffffffffffffffffffffffffffffffffffffff1673ffffffffffffffffffffffffffffffffffffffff1681526020019081526020016000206112ac905050808273ffffffffffffffffffffffffffffffffffffffff163373ffffffffffffffffffffffffffffffffffffffff167f8c5be1e5ebec7d5bd14f71427d1e84f3dd0314c0f7b2291e5b200ac8c7c3b92560405160405180910390a45050565b6000600880549050905090565b61070a33826112c2565b61071357600080fd5b61071e838383611357565b505050565b610762828260006040519080825280601f01601f19166020018201604052801561075c5781602001600182028038833980820191505090505b5061087b565b5050565b600061077183610b40565b821061077c57600080fd5b600660008473ffffffffffffffffffffffffffffffffffffffff1673ffffffffffffffffffffffffffffffffffffffff16815260200190815260200160002082815481106107c657fe5b9060005260206000200154905092915050565b606060108054600181600116156101000203166002900480601f0160208091040260200160405190810160405280929190818152602001828054600181600116156101000203166002900480156108715780601f1061084657610100808354040283529160200191610871565b820191906000526020600020905b81548152906001019060200180831161085457829003601f168201915b5050505050905090565b505050565b606060118054600181600116156101000203166002900480601f0160208091040260200160405190810160405280929190818152602001828054600181600116156101000203166002900480156109185780601f106108ed57610100808354040283529160200191610918565b820191906000526020600020905b8154815290600101906020018083116108fb57829003601f168201915b5050505050905090565b60008060009054906101000a900473ffffffffffffffffffffffffffffffffffffffff1673ffffffffffffffffffffffffffffffffffffffff163373ffffffffffffffffffffffffffffffffffffffff16146109b3576040517f08c379a00000000000000000000000000000000000000000000000000000000081526004016109aa90613365565b60405180910390fd5b600073ffffffffffffffffffffffffffffffffffffffff168373ffffffffffffffffffffffffffffffffffffffff161415610a23576040517f08c379a0000000000000000000000000000000000000000000000000000000008152600401610a1a906132e5565b60405180910390fd5b610a2c8261137b565b15610a6c576040517f08c379a0000000000000000000000000000000000000000000000000000000008152600401610a63906132a5565b60405180910390fd5b610a7683836113ed565b610a7f8261140e565b6001905092915050565b610aa483838360405180602001604052806000815250610e3d565b505050565b6000610ab36106f3565b8210610abe57600080fd5b60088281548110610acb57fe5b90600052602060002001549050919050565b60006002600083815260200190815260200160002060009054906101000a900473ffffffffffffffffffffffffffffffffffffffff169050919050565b601360009054906101000a900473ffffffffffffffffffffffffffffffffffffffff1681565b6000610b89600460008473ffffffffffffffffffffffffffffffffffffffff1673ffffffffffffffffffffffffffffffffffffffff1681526020019081526020016000206114f6565b9050919050565b6060600f8054600181600116156101000203166002900480601f016020809104026020016040519081016040528092919081815260200182805460018160011615610100020316600290048015610c285780601f10610bfd57610100808354040283529160200191610c28565b820191906000526020600020905b815481529060010190602001808311610c0b57829003601f168201915b5050505050905090565b6000809054906101000a900473ffffffffffffffffffffffffffffffffffffffff1673ffffffffffffffffffffffffffffffffffffffff163373ffffffffffffffffffffffffffffffffffffffff1614610cc1576040517f08c379a0000000000000000000000000000000000000000000000000000000008152600401610cb890613365565b60405180910390fd5b80600060146101000a81548160ff02191690831515021790555050565b3373ffffffffffffffffffffffffffffffffffffffff168273ffffffffffffffffffffffffffffffffffffffff161415610d1757600080fd5b80600560003373ffffffffffffffffffffffffffffffffffffffff1673ffffffffffffffffffffffffffffffffffffffff16815260200190815260200160002060008473ffffffffffffffffffffffffffffffffffffffff1673ffffffffffffffffffffffffffffffffffffffff16815260200190815260200160002060006101000a81548160ff0219169083151502179055508173ffffffffffffffffffffffffffffffffffffffff163373ffffffffffffffffffffffffffffffffffffffff167f17307eab39ab6107e8899845ad3d59bd9653f200f220920489ca2b5937696c3183604051610e08919061322d565b60405180910390a35050565b60008060009054906101000a900473ffffffffffffffffffffffffffffffffffffffff16905090565b610e48848484610700565b610e5484848484611504565b610e5d57600080fd5b50505050565b6060610e6e8261137b565b610e7757600080fd5b601260008381526020019081526020016000208054600181600116156101000203166002900480601f016020809104026020016040519081016040528092919081815260200182805460018160011615610100020316600290048015610f1e5780601f10610ef357610100808354040283529160200191610f1e565b820191906000526020600020905b815481529060010190602001808311610f0157829003601f168201915b50505050509050919050565b600084848484604051602001610f439493929190613131565b604051602081830303815290604052805190602001209050600073ffffffffffffffffffffffffffffffffffffffff166015600083815260200190815260200160002060010160009054906101000a900473ffffffffffffffffffffffffffffffffffffffff1673ffffffffffffffffffffffffffffffffffffffff1614611000576040517f08c379a0000000000000000000000000000000000000000000000000000000008152600401610ff790613285565b60405180910390fd5b601360009054906101000a900473ffffffffffffffffffffffffffffffffffffffff1673ffffffffffffffffffffffffffffffffffffffff1663621e9ec0868686866040518563ffffffff1660e01b815260040161106194939291906131e6565b60206040518083038186803b15801561107957600080fd5b505afa15801561108d573d6000803e3d6000fd5b505050506040513d601f19601f820116820180604052506110b19190810190612a03565b6110f0576040517f08c379a00000000000000000000000000000000000000000000000000000000081526004016110e790613325565b60405180910390fd5b6110fb86888361161b565b6111058787610922565b5050505050505050565b6000600560008473ffffffffffffffffffffffffffffffffffffffff1673ffffffffffffffffffffffffffffffffffffffff16815260200190815260200160002060008373ffffffffffffffffffffffffffffffffffffffff1673ffffffffffffffffffffffffffffffffffffffff16815260200190815260200160002060009054906101000a900460ff16905092915050565b6000809054906101000a900473ffffffffffffffffffffffffffffffffffffffff1673ffffffffffffffffffffffffffffffffffffffff163373ffffffffffffffffffffffffffffffffffffffff1614611232576040517f08c379a000000000000000000000000000000000000000000000000000000000815260040161122990613365565b60405180910390fd5b806000806101000a81548173ffffffffffffffffffffffffffffffffffffffff021916908373ffffffffffffffffffffffffffffffffffffffff1602179055507fac9a252a3ed2d3fcc198677953ffe98ac492e191a4605978c655f8ce4ae80676816040516112a1919061317f565b60405180910390a150565b6001816000016000828254019250508190555050565b6000806112ce83610add565b90508073ffffffffffffffffffffffffffffffffffffffff168473ffffffffffffffffffffffffffffffffffffffff16148061133d57508373ffffffffffffffffffffffffffffffffffffffff166113258461055c565b73ffffffffffffffffffffffffffffffffffffffff16145b8061134e575061134d818561110f565b5b91505092915050565b611362838383611779565b61136c83826119a8565b6113768282611b46565b505050565b6000806002600084815260200190815260200160002060009054906101000a900473ffffffffffffffffffffffffffffffffffffffff169050600073ffffffffffffffffffffffffffffffffffffffff168173ffffffffffffffffffffffffffffffffffffffff161415915050919050565b6113f78282611c0d565b6114018282611b46565b61140a81611dbf565b5050565b6114178161137b565b61142057600080fd5b6114cc60118054600181600116156101000203166002900480601f0160208091040260200160405190810160405280929190818152602001828054600181600116156101000203166002900480156114b95780601f1061148e576101008083540402835291602001916114b9565b820191906000526020600020905b81548152906001019060200180831161149c57829003601f168201915b50505050506114c783611e0b565b611f38565b6012600083815260200190815260200160002090805190602001906114f292919061240f565b5050565b600081600001549050919050565b60006115258473ffffffffffffffffffffffffffffffffffffffff16611f7c565b6115325760019050611613565b60008473ffffffffffffffffffffffffffffffffffffffff1663150b7a02338887876040518563ffffffff1660e01b8152600401611573949392919061319a565b602060405180830381600087803b15801561158d57600080fd5b505af11580156115a1573d6000803e3d6000fd5b505050506040513d601f19601f820116820180604052506115c59190810190612b28565b905063150b7a0260e01b7bffffffffffffffffffffffffffffffffffffffffffffffffffffffff1916817bffffffffffffffffffffffffffffffffffffffffffffffffffffffff1916149150505b949350505050565b61162361248f565b60405180604001604052808581526020018473ffffffffffffffffffffffffffffffffffffffff168152509050601481908060018154018082558091505090600182039060005260206000209060020201600090919290919091506000820151816000015560208201518160010160006101000a81548173ffffffffffffffffffffffffffffffffffffffff021916908373ffffffffffffffffffffffffffffffffffffffff16021790555050505080601560008481526020019081526020016000206000820151816000015560208201518160010160006101000a81548173ffffffffffffffffffffffffffffffffffffffff021916908373ffffffffffffffffffffffffffffffffffffffff1602179055509050507f078793128cefb19aac38a33f9e5df39f67716907f6d747e8065545699e0b2b8d848460405161176b9291906133a0565b60405180910390a150505050565b8273ffffffffffffffffffffffffffffffffffffffff1661179982610add565b73ffffffffffffffffffffffffffffffffffffffff16146117ef576040517f08c379a00000000000000000000000000000000000000000000000000000000081526004016117e690613305565b60405180910390fd5b600073ffffffffffffffffffffffffffffffffffffffff168273ffffffffffffffffffffffffffffffffffffffff16141561185f576040517f08c379a0000000000000000000000000000000000000000000000000000000008152600401611856906132c5565b60405180910390fd5b61186881611fc7565b6118af600460008573ffffffffffffffffffffffffffffffffffffffff1673ffffffffffffffffffffffffffffffffffffffff168152602001908152602001600020612085565b6118f6600460008473ffffffffffffffffffffffffffffffffffffffff1673ffffffffffffffffffffffffffffffffffffffff1681526020019081526020016000206112ac565b816002600083815260200190815260200160002060006101000a81548173ffffffffffffffffffffffffffffffffffffffff021916908373ffffffffffffffffffffffffffffffffffffffff160217905550808273ffffffffffffffffffffffffffffffffffffffff168473ffffffffffffffffffffffffffffffffffffffff167fddf252ad1be2c89b69c2b068fc378daa952ba7f163c4a11628f55a4df523b3ef60405160405180910390a4505050565b6000611a006001600660008673ffffffffffffffffffffffffffffffffffffffff1673ffffffffffffffffffffffffffffffffffffffff168152602001908152602001600020805490506120a890919063ffffffff16565b9050600060076000848152602001908152602001600020549050818114611aed576000600660008673ffffffffffffffffffffffffffffffffffffffff1673ffffffffffffffffffffffffffffffffffffffff1681526020019081526020016000208381548110611a6d57fe5b9060005260206000200154905080600660008773ffffffffffffffffffffffffffffffffffffffff1673ffffffffffffffffffffffffffffffffffffffff1681526020019081526020016000208381548110611ac557fe5b9060005260206000200181905550816007600083815260200190815260200160002081905550505b600660008573ffffffffffffffffffffffffffffffffffffffff1673ffffffffffffffffffffffffffffffffffffffff168152602001908152602001600020805480919060019003611b3f91906124bf565b5050505050565b600660008373ffffffffffffffffffffffffffffffffffffffff1673ffffffffffffffffffffffffffffffffffffffff168152602001908152602001600020805490506007600083815260200190815260200160002081905550600660008373ffffffffffffffffffffffffffffffffffffffff1673ffffffffffffffffffffffffffffffffffffffff1681526020019081526020016000208190806001815401808255809150509060018203906000526020600020016000909192909190915055505050565b600073ffffffffffffffffffffffffffffffffffffffff168273ffffffffffffffffffffffffffffffffffffffff161415611c7d576040517f08c379a0000000000000000000000000000000000000000000000000000000008152600401611c74906132e5565b60405180910390fd5b611c868161137b565b15611cc6576040517f08c379a0000000000000000000000000000000000000000000000000000000008152600401611cbd906132a5565b60405180910390fd5b816002600083815260200190815260200160002060006101000a81548173ffffffffffffffffffffffffffffffffffffffff021916908373ffffffffffffffffffffffffffffffffffffffff160217905550611d5f600460008473ffffffffffffffffffffffffffffffffffffffff1673ffffffffffffffffffffffffffffffffffffffff1681526020019081526020016000206112ac565b808273ffffffffffffffffffffffffffffffffffffffff16600073ffffffffffffffffffffffffffffffffffffffff167fddf252ad1be2c89b69c2b068fc378daa952ba7f163c4a11628f55a4df523b3ef60405160405180910390a45050565b6008805490506009600083815260200190815260200160002081905550600881908060018154018082558091505090600182039060005260206000200160009091929091909150555050565b60606000821415611e53576040518060400160405280600181526020017f30000000000000000000000000000000000000000000000000000000000000008152509050611f33565b600082905060005b60008214611e7d578080600101915050600a8281611e7557fe5b049150611e5b565b6060816040519080825280601f01601f191660200182016040528015611eb25781602001600182028038833980820191505090505b50905060006001830390505b60008614611f2b57600a8681611ed057fe5b0660300160f81b82828060019003935081518110611eea57fe5b60200101907effffffffffffffffffffffffffffffffffffffffffffffffffffffffffffff1916908160001a905350600a8681611f2357fe5b049550611ebe565b819450505050505b919050565b6060611f7483836040518060200160405280600081525060405180602001604052806000815250604051806020016040528060008152506120f2565b905092915050565b60008060007fc5d2460186f7233c927e7db2dcc703c0e500b653ca82273b7bfad8045d85a47060001b9050833f9150808214158015611fbe57506000801b8214155b92505050919050565b600073ffffffffffffffffffffffffffffffffffffffff166003600083815260200190815260200160002060009054906101000a900473ffffffffffffffffffffffffffffffffffffffff1673ffffffffffffffffffffffffffffffffffffffff16146120825760006003600083815260200190815260200160002060006101000a81548173ffffffffffffffffffffffffffffffffffffffff021916908373ffffffffffffffffffffffffffffffffffffffff1602179055505b50565b61209d600182600001546120a890919063ffffffff16565b816000018190555050565b60006120ea83836040518060400160405280601e81526020017f536166654d6174683a207375627472616374696f6e206f766572666c6f7700008152506123b4565b905092915050565b6060808690506060869050606086905060608690506060869050606081518351855187518951010101016040519080825280601f01601f19166020018201604052801561214e5781602001600182028038833980820191505090505b509050606081905060008090506000809050600090505b88518110156121d35788818151811061217a57fe5b602001015160f81c60f81b83838060010194508151811061219757fe5b60200101907effffffffffffffffffffffffffffffffffffffffffffffffffffffffffffff1916908160001a9053508080600101915050612165565b600090505b8751811015612246578781815181106121ed57fe5b602001015160f81c60f81b83838060010194508151811061220a57fe5b60200101907effffffffffffffffffffffffffffffffffffffffffffffffffffffffffffff1916908160001a90535080806001019150506121d8565b600090505b86518110156122b95786818151811061226057fe5b602001015160f81c60f81b83838060010194508151811061227d57fe5b60200101907effffffffffffffffffffffffffffffffffffffffffffffffffffffffffffff1916908160001a905350808060010191505061224b565b600090505b855181101561232c578581815181106122d357fe5b602001015160f81c60f81b8383806001019450815181106122f057fe5b60200101907effffffffffffffffffffffffffffffffffffffffffffffffffffffffffffff1916908160001a90535080806001019150506122be565b600090505b845181101561239f5784818151811061234657fe5b602001015160f81c60f81b83838060010194508151811061236357fe5b60200101907effffffffffffffffffffffffffffffffffffffffffffffffffffffffffffff1916908160001a9053508080600101915050612331565b82995050505050505050505095945050505050565b60008383111582906123fc576040517f08c379a00000000000000000000000000000000000000000000000000000000081526004016123f39190613263565b60405180910390fd5b5060008385039050809150509392505050565b828054600181600116156101000203166002900490600052602060002090601f016020900481019282601f1061245057805160ff191683800117855561247e565b8280016001018555821561247e579182015b8281111561247d578251825591602001919060010190612462565b5b50905061248b91906124eb565b5090565b604051806040016040528060008152602001600073ffffffffffffffffffffffffffffffffffffffff1681525090565b8154818355818111156124e6578183600052602060002091820191016124e591906124eb565b5b505050565b61250d91905b808211156125095760008160009055506001016124f1565b5090565b90565b60008135905061251f816136bf565b92915050565b600082601f83011261253657600080fd5b6002612549612544826133f6565b6133c9565b9150818385604084028201111561255f57600080fd5b60005b8381101561258f57816125758882612599565b845260208401935060408301925050600181019050612562565b5050505092915050565b600082601f8301126125aa57600080fd5b60026125bd6125b882613418565b6133c9565b915081838560208402820111156125d357600080fd5b60005b8381101561260357816125e98882612792565b8452602084019350602083019250506001810190506125d6565b5050505092915050565b600082601f83011261261e57600080fd5b600261263161262c8261343a565b6133c9565b9150818385602084028201111561264757600080fd5b60005b83811015612677578161265d8882612792565b84526020840193506020830192505060018101905061264a565b5050505092915050565b600081359050612690816136d6565b92915050565b6000815190506126a5816136d6565b92915050565b6000813590506126ba816136ed565b92915050565b6000813590506126cf81613704565b92915050565b6000815190506126e481613704565b92915050565b600082601f8301126126fb57600080fd5b813561270e6127098261345c565b6133c9565b9150808252602083016020830185838301111561272a57600080fd5b61273583828461366c565b50505092915050565b600082601f83011261274f57600080fd5b813561276261275d82613488565b6133c9565b9150808252602083016020830185838301111561277e57600080fd5b61278983828461366c565b50505092915050565b6000813590506127a18161371b565b92915050565b6000602082840312156127b957600080fd5b60006127c784828501612510565b91505092915050565b600080604083850312156127e357600080fd5b60006127f185828601612510565b925050602061280285828601612510565b9150509250929050565b60008060006060848603121561282157600080fd5b600061282f86828701612510565b935050602061284086828701612510565b925050604061285186828701612792565b9150509250925092565b6000806000806080858703121561287157600080fd5b600061287f87828801612510565b945050602061289087828801612510565b93505060406128a187828801612792565b925050606085013567ffffffffffffffff8111156128be57600080fd5b6128ca878288016126ea565b91505092959194509250565b600080604083850312156128e957600080fd5b60006128f785828601612510565b925050602061290885828601612681565b9150509250929050565b6000806040838503121561292557600080fd5b600061293385828601612510565b925050602061294485828601612792565b9150509250929050565b600080600080600080610180878903121561296857600080fd5b600061297689828a01612510565b965050602061298789828a01612792565b955050604061299889828a0161260d565b94505060806129a989828a01612525565b9350506101006129bb89828a0161260d565b9250506101406129cd89828a0161260d565b9150509295509295509295565b6000602082840312156129ec57600080fd5b60006129fa84828501612681565b91505092915050565b600060208284031215612a1557600080fd5b6000612a2384828501612696565b91505092915050565b60008060408385031215612a3f57600080fd5b6000612a4d858286016126ab565b925050602083013567ffffffffffffffff811115612a6a57600080fd5b612a768582860161273e565b9150509250929050565b600080600060608486031215612a9557600080fd5b6000612aa3868287016126ab565b935050602084013567ffffffffffffffff811115612ac057600080fd5b612acc8682870161273e565b925050604084013567ffffffffffffffff811115612ae957600080fd5b612af5868287016126ea565b9150509250925092565b600060208284031215612b1157600080fd5b6000612b1f848285016126c0565b91505092915050565b600060208284031215612b3a57600080fd5b6000612b48848285016126d5565b91505092915050565b600060208284031215612b6357600080fd5b6000612b7184828501612792565b91505092915050565b6000612b868383612d54565b60408301905092915050565b6000612b9e8383612dab565b60408301905092915050565b6000612bb68383613104565b60208301905092915050565b6000612bce8383613122565b60208301905092915050565b612be381613612565b82525050565b612bf281613594565b82525050565b612c01816134d2565b612c0b8184613530565b9250612c16826134b4565b8060005b83811015612c47578151612c2e8782612b7a565b9650612c3983613509565b925050600181019050612c1a565b505050505050565b612c58816134d2565b612c62818461353b565b9250612c6d826134b4565b8060005b83811015612c9e578151612c858782612b92565b9650612c9083613509565b925050600181019050612c71565b505050505050565b612caf816134e8565b612cb98184613551565b9250612cc4826134c8565b8060005b83811015612cf5578151612cdc8782612baa565b9650612ce783613523565b925050600181019050612cc8565b505050505050565b612d06816134e8565b612d108184613567565b9250612d1b826134c8565b8060005b83811015612d4c578151612d338782612bc2565b9650612d3e83613523565b925050600181019050612d1f565b505050505050565b612d5d816134dd565b612d678184613546565b9250612d72826134be565b8060005b83811015612da3578151612d8a8782612baa565b9650612d9583613516565b925050600181019050612d76565b505050505050565b612db4816134dd565b612dbe818461355c565b9250612dc9826134be565b8060005b83811015612dfa578151612de18782612bc2565b9650612dec83613516565b925050600181019050612dcd565b505050505050565b612e0b816135a6565b82525050565b6000612e1c826134f3565b612e268185613572565b9350612e3681856020860161367b565b612e3f816136ae565b840191505092915050565b612e5381613624565b82525050565b6000612e64826134fe565b612e6e8185613583565b9350612e7e81856020860161367b565b612e87816136ae565b840191505092915050565b6000612e9f600e83613583565b91507f6d75737420626520756e697175650000000000000000000000000000000000006000830152602082019050919050565b6000612edf601c83613583565b91507f4552433732313a20746f6b656e20616c7265616479206d696e746564000000006000830152602082019050919050565b6000612f1f602483613583565b91507f4552433732313a207472616e7366657220746f20746865207a65726f2061646460008301527f72657373000000000000000000000000000000000000000000000000000000006020830152604082019050919050565b6000612f85602083613583565b91507f4552433732313a206d696e7420746f20746865207a65726f20616464726573736000830152602082019050919050565b6000612fc5602983613583565b91507f4552433732313a207472616e73666572206f6620746f6b656e2074686174206960008301527f73206e6f74206f776e00000000000000000000000000000000000000000000006020830152604082019050919050565b600061302b600b83613583565b91507f6e6f7420636f72726563740000000000000000000000000000000000000000006000830152602082019050919050565b600061306b602483613583565b91507f41646472657373206d757374206e6f74206265206f776e6572206f6620746f6b60008301527f656e4964000000000000000000000000000000000000000000000000000000006020830152604082019050919050565b60006130d1601483613583565b91507f4e6f74206120636f6e7472616374206f776e65720000000000000000000000006000830152602082019050919050565b61310d81613608565b82525050565b61311c81613608565b82525050565b61312b81613608565b82525050565b600061313d8287612cfd565b60408201915061314d8286612c4f565b60808201915061315d8285612cfd565b60408201915061316d8284612cfd565b60408201915081905095945050505050565b60006020820190506131946000830184612be9565b92915050565b60006080820190506131af6000830187612bda565b6131bc6020830186612be9565b6131c96040830185613113565b81810360608301526131db8184612e11565b905095945050505050565b6000610140820190506131fc6000830187612ca6565b6132096040830186612bf8565b61321660c0830185612ca6565b613224610100830184612ca6565b95945050505050565b60006020820190506132426000830184612e02565b92915050565b600060208201905061325d6000830184612e4a565b92915050565b6000602082019050818103600083015261327d8184612e59565b905092915050565b6000602082019050818103600083015261329e81612e92565b9050919050565b600060208201905081810360008301526132be81612ed2565b9050919050565b600060208201905081810360008301526132de81612f12565b9050919050565b600060208201905081810360008301526132fe81612f78565b9050919050565b6000602082019050818103600083015261331e81612fb8565b9050919050565b6000602082019050818103600083015261333e8161301e565b9050919050565b6000602082019050818103600083015261335e8161305e565b9050919050565b6000602082019050818103600083015261337e816130c4565b9050919050565b600060208201905061339a6000830184613113565b92915050565b60006040820190506133b56000830185613113565b6133c26020830184612be9565b9392505050565b6000604051905081810181811067ffffffffffffffff821117156133ec57600080fd5b8060405250919050565b600067ffffffffffffffff82111561340d57600080fd5b602082029050919050565b600067ffffffffffffffff82111561342f57600080fd5b602082029050919050565b600067ffffffffffffffff82111561345157600080fd5b602082029050919050565b600067ffffffffffffffff82111561347357600080fd5b601f19601f8301169050602081019050919050565b600067ffffffffffffffff82111561349f57600080fd5b601f19601f8301169050602081019050919050565b6000819050919050565b6000819050919050565b6000819050919050565b600060029050919050565b600060029050919050565b600060029050919050565b600081519050919050565b600081519050919050565b6000602082019050919050565b6000602082019050919050565b6000602082019050919050565b600081905092915050565b600081905092915050565b600081905092915050565b600081905092915050565b600081905092915050565b600081905092915050565b600082825260208201905092915050565b600082825260208201905092915050565b600061359f826135e8565b9050919050565b60008115159050919050565b6000819050919050565b60007fffffffff0000000000000000000000000000000000000000000000000000000082169050919050565b600073ffffffffffffffffffffffffffffffffffffffff82169050919050565b6000819050919050565b600061361d82613648565b9050919050565b600061362f82613636565b9050919050565b6000613641826135e8565b9050919050565b60006136538261365a565b9050919050565b6000613665826135e8565b9050919050565b82818337600083830152505050565b60005b8381101561369957808201518184015260208101905061367e565b838111156136a8576000848401525b50505050565b6000601f19601f8301169050919050565b6136c881613594565b81146136d357600080fd5b50565b6136df816135a6565b81146136ea57600080fd5b50565b6136f6816135b2565b811461370157600080fd5b50565b61370d816135bc565b811461371857600080fd5b50565b61372481613608565b811461372f57600080fd5b5056fea365627a7a72315820fa9b276a28c0b6c2702563515c5a16edf445f23e7da01aef74d5b9cdc4dcb7476c6578706572696d656e74616cf564736f6c6343000510004068747470733a2f2f73332d75732d776573742d322e616d617a6f6e6177732e636f6d2f756461636974792d626c6f636b636861696e2f63617073746f6e652f",
  "source": "pragma solidity >=0.4.21 <0.6.0;\npragma experimental ABIEncoderV2;\n\nimport \"./verifier.sol\";\nimport \"./ERC721Mintable.sol\";\n\n// TODO define a contract call to the zokrates generated solidity contract <Verifier> or <renamedVerifier>\ncontract ZokratesVerifier is Verifier {\n\n}\n\n// TODO define another contract named SolnSquareVerifier that inherits from your ERC721Mintable class\ncontract SolnSquareVerifier is CustomERC721Token {\n\n// TODO define a solutions struct that can hold an index & an address\nstruct Solutions {\n    uint256 index;\n    address toAddress;\n}\n\n//define variable then assign in constructor\nZokratesVerifier public ZVerifier;\nconstructor(address _address) CustomERC721Token() public{\n        ZVerifier = ZokratesVerifier(_address);\n    }\n\n// TODO define an array of the above struct\nSolutions[] ArrayofSolutions;\n\n// TODO define a mapping to store unique solutions submitted\nmapping(bytes32 => Solutions) private uniqueSolution;\n\n// TODO Create an event to emit when a solution is added\nevent SolutionAdded(uint256 index, address toAddress);\n\n// TODO Create a function to add the solutions to the array and emit the event\nfunction AddSolution(uint256 _index, address _toAddress, bytes32 _key) internal {\n       \n       Solutions memory _solution = Solutions({index : _index, toAddress : _toAddress});\n       ArrayofSolutions.push(_solution);\n       uniqueSolution[_key] = _solution;\n\n        // TODO emit Approval Event\n        emit SolutionAdded(_index, _toAddress);\n    }\n\n// TODO Create a function to mint new NFT only after the solution has been verified\n//  - make sure the solution is unique (has not been used before)\n//  - make sure you handle metadata as well as tokenSuplly\n\nfunction Mint(address _to, uint256 _tokenId, uint[2] memory _input1, \n                uint[2][2] memory _input2, uint[2] memory _input3, uint[2] memory _input4) public \n{\n    bytes32 key = keccak256(abi.encodePacked(_input1, _input2, _input3, _input4));\n    require(uniqueSolution[key].toAddress == address(0),\"must be unique\");\n    require(ZVerifier.verifyTx(_input1, _input2, _input3, _input4), \"not correct\");\n\n    AddSolution(_tokenId, _to, key);\n    super.mint(_to, _tokenId);\n}\n\n}\n\n  \n\n\n\n\n\n\n\n\n\n\n\n\n\n\n\n\n\n\n\n\n\n\n\n\n\n\n",
  "sourcePath": "E:\\Data\\Carmel\\Carmel_Web\\Miscellaneous\\Blockchain\\Blockchain-Capstone-master\\eth-contracts\\contracts\\SolnSquareVerifier.sol",
  "compiler": {
    "name": "solc",
    "version": "0.5.16+commit.9c3226ce.Emscripten.clang"
  },
  "schemaVersion": "3.4.3",
  "updatedAt": "2021-12-15T18:45:12.763Z",
  "devdoc": {
    "methods": {
      "isApprovedForAll(address,address)": {
        "details": "Tells whether an operator is approved by a given owner",
        "params": {
          "operator": "operator address which you want to query the approval of",
          "owner": "owner address which you want to query the approval of"
        },
        "return": "bool whether the given operator is approved by the given owner"
      },
      "setApprovalForAll(address,bool)": {
        "details": "Sets or unsets the approval of a given operator An operator is allowed to transfer all tokens of the sender on their behalf",
        "params": {
          "approved": "representing the status of the approval to be set",
          "to": "operator address to set the approval"
        }
      },
      "supportsInterface(bytes4)": {
        "details": "implement supportsInterface(bytes4) using a lookup table"
      },
      "tokenByIndex(uint256)": {
        "details": "Gets the token ID at a given index of all the tokens in this contract Reverts if the index is greater or equal to the total number of tokens",
        "params": {
          "index": "uint256 representing the index to be accessed of the tokens list"
        },
        "return": "uint256 token ID at the given index of the tokens list"
      },
      "tokenOfOwnerByIndex(address,uint256)": {
        "details": "Gets the token ID at a given index of the tokens list of the requested owner",
        "params": {
          "index": "uint256 representing the index to be accessed of the requested tokens list",
          "owner": "address owning the tokens list to be accessed"
        },
        "return": "uint256 token ID at the given index of the tokens list owned by the requested address"
      },
      "totalSupply()": {
        "details": "Gets the total amount of tokens stored by the contract",
        "return": "uint256 representing the total amount of tokens"
      }
    }
  },
  "userdoc": {
    "methods": {}
  }
}